:020000041008E2
:1000000000000828B18A0810F99208102D900810F5
:10001000FD920810019308100593081000000000DD
:10002000000000000000000000000000F190081037
:1000300009930810000000000D9308101193081098
:10004000378908105D89081083890810A98908106C
:10005000CF890810F58908101B8A0810418A0810FA
:1000600015930810199308101D9308102193081078
:1000700025930810299308102D9308103193081028
:10008000022801D3012010E00B00DBB2042B01DBBE
:1000900001200AE0DFF8283803EB8000C9B2405C99
:1000A000824201D3012000E000207047F8B506002D
:1000B0000F0015001C00022E01D301201DE02A00B4
:1000C0003900C9B23000FFF7DBFF012801D1012060
:1000D00013E03800C0B2002812D1B4F5807F0DD2F1
:1000E000DFF8E0077603304400EB850010F5805020
:1000F000016864F30F2101600020F2BD0120FCE7DC
:10010000FFB2012F11D1B4F5803F0CD2DFF8B40754
:100110007603304400EB850010F5A050016864F3CD
:1001200017210160E8E70120E7E70120E5E700B2D9
:100130000012C0B27047F8B505000E001700280085
:1001400000B2FFF7F4FF04002000C0B2022801D380
:10015000012024E03A003100C9B22000C0B2FFF70C
:100160008FFF012801D1012019E0DFF85817200086
:10017000C0B2400308442A00D2B200EB8200D0F89B
:10018000000CF6B266F3092067F30700E4B26403DB
:100190002144EDB201EB8501C1F8000C0020F2BD55
:1001A00070B504000D001600022C01D301201DE0E3
:1001B00032002900C9B22000FFF762FF012801D1F7
:1001C000012013E0DFF8FC166003085850F00040EF
:1001D00050F0407050F47F00EDB265F3092066F3F3
:1001E00007006203885064030859002070BD10B5F1
:1001F000C0B2002800F0EA80022800F0EB80C0F0D6
:10020000E780042800F0EA80C0F0E680062800F0CD
:10021000E980C0F0E580082800F0E880C0F0E480C4
:100220000A2800F0E780C0F0E3800C2800F0E680A8
:10023000C0F0E2800E2800F0E580C0F0E1801028D8
:1002400000F0E480C0F0E080122800F0E380C0F00D
:10025000DF80142800F0E280C0F0DE80162800F075
:10026000E180C0F0DD80182800F0E080C0F0DC8084
:100270001A2800F0DF80C0F0DB801C2800F0DE8050
:10028000C0F0DA801E2800F0DD80C0F0D980202880
:1002900000F0DC80C0F0D880222800F0DB80C0F0C5
:1002A000D780242800F0DA80C0F0D680262800F01D
:1002B000D980C0F0D580282800F0D880C0F0D48044
:1002C0002A2800F0D780C0F0D3802C2800F0D680F8
:1002D000C0F0D2802E2800F0D580C0F0D180302828
:1002E00000F0D480C0F0D080322800F0D380C0F07D
:1002F000CF80342800F0D280C0F0CE80362800F0C5
:10030000D180C0F0CD80382800F0D080C0F0CC8003
:100310003A2800F0CF80C0F0CB803C2800F0CE809F
:10032000C0F0CA803E2800F0CD80C0F0C9804028CF
:1003300000F0CC80C0F0C880422800F0CB80C0F034
:10034000C780442800F0CA80C0F0C680462800F06C
:10035000C980C0F0C580482800F0C880C0F0C480C3
:100360004A2800F0C780C0F0C3804C2800F0C68047
:10037000C0F0C2804E2800F0C580C0F0C180502877
:1003800000F0C480C0F0C080522800F0C380C0F0EC
:10039000BF80542800F0C280C0F0BE80562800F014
:1003A000C180C0F0BD80582800F0C080C0F0BC8083
:1003B0005A2800F0BF80C0F0BB805C2800F0BE80EF
:1003C000C0F0BA805D2800F0BB80BBE01924BFE01C
:1003D0003124BDE01824BBE03324B9E03524B7E074
:1003E0001424B5E03724B3E01324B1E02024AFE0B7
:1003F0001224ADE02124ABE01124A9E01024A7E0F1
:100400002824A5E02924A3E02A24A1E009249FE0D0
:100410002B249DE008249BE02C2499E0032497E002
:10042000022495E0392493E03B2491E03D248FE0C1
:1004300001248DE03F248BE0002489E0402487E004
:10044000412485E0422483E0432481E0BF247FE00F
:1004500048247DE049247BE0BC2479E0992477E0BE
:100460009A2475E0502473E09B2471E0B6246FE079
:1004700051246DE09C246BE0B52469E0522467E0D0
:10048000A02465E0B42463E0532461E0B3245FE07A
:1004900054245DE0B2245BE0B12459E0AD2457E080
:1004A000602455E0AE2453E0612451E0AD244FE0D8
:1004B00062244DE063244BE0AB2449E0642447E030
:1004C000AA2445E0652443E0A92441E0A8243FE0B4
:1004D00069243DE06B243BE06D2439E06F2437E074
:1004E000A32435E0702433E0A22431E071242FE00E
:1004F000A1242DE097242BE0962429E0742427E002
:10050000952425E0752423E0942421E093241FE022
:1005100092241DE078241BE0792419E08C2417E054
:100520007A2415E08B2413E07B2411E08A240FE069
:100530005A240DE059240BE0892409E0582407E0EF
:10054000882405E09D22DFF84019002000F033FEEA
:100550002000C0B210BD10B5C0B2002800F0EA8083
:10056000022800F0EB80C0F0E780042800F0EA8069
:10057000C0F0E680062800F0E980C0F0E580082899
:1005800000F0E880C0F0E4800A2800F0E780C0F0C6
:10059000E3800C2800F0E680C0F0E2800E2800F036
:1005A000E580C0F0E180102800F0E480C0F0E08039
:1005B000122800F0E380C0F0DF80142800F0E28011
:1005C000C0F0DE80162800F0E180C0F0DD80182841
:1005D00000F0E080C0F0DC801A2800F0DF80C0F07E
:1005E000DB801C2800F0DE80C0F0DA801E2800F0DE
:1005F000DD80C0F0D980202800F0DC80C0F0D880F9
:10060000222800F0DB80C0F0D780242800F0DA80B8
:10061000C0F0D680262800F0D980C0F0D5802828E8
:1006200000F0D880C0F0D4802A2800F0D780C0F035
:10063000D3802C2800F0D680C0F0D2802E2800F085
:10064000D580C0F0D180302800F0D480C0F0D080B8
:10065000322800F0D380C0F0CF80342800F0D28060
:10066000C0F0CE80362800F0D180C0F0CD80382890
:1006700000F0D080C0F0CC803A2800F0CF80C0F0ED
:10068000CB803C2800F0CE80C0F0CA803E2800F02D
:10069000CD80C0F0C980402800F0CC80C0F0C88078
:1006A000422800F0CB80C0F0C780442800F0CA8008
:1006B000C0F0C680462800F0C980C0F0C580482838
:1006C00000F0C880C0F0C4804A2800F0C780C0F0A5
:1006D000C3804C2800F0C680C0F0C2804E2800F0D5
:1006E000C580C0F0C180502800F0C480C0F0C08038
:1006F000522800F0C380C0F0BF80542800F0C280B0
:10070000C0F0BE80562800F0C180C0F0BD805828DF
:1007100000F0C080C0F0BC805A2800F0BF80C0F05C
:10072000BB805C2800F0BE80C0F0BA805D2800F07D
:10073000BB80BBE00824C0E00824BEE00824BCE085
:100740000824BAE00824B8E00824B6E00824B4E09D
:100750000824B2E00824B0E00824AEE00824ACE0AD
:100760000824AAE00824A8E00824A6E00824A4E0BD
:100770000824A2E00824A0E008249EE008249CE0CD
:1007800008249AE0082498E0082496E0082494E0DD
:10079000082492E0082490E008248EE008248CE0ED
:1007A00008248AE0082488E0082486E0082484E0FD
:1007B000082482E0082480E008247EE008247CE00D
:1007C00008247AE0082478E0082476E0082474E01D
:1007D000082472E0082470E008246EE008246CE02D
:1007E00008246AE0082468E0082466E0082464E03D
:1007F000082462E0082460E008245EE008245CE04D
:1008000008245AE0162458E0082456E0082454E04E
:10081000082452E0082450E008244EE008244CE06C
:1008200008244AE0082448E0082446E0082444E07C
:10083000082442E0082440E008243EE008243CE08C
:1008400008243AE0082438E0082436E0082434E09C
:10085000082432E0082430E008242EE008242CE0AC
:1008600008242AE0082428E0082426E0082424E0BC
:10087000082422E0082420E008241EE008241CE0CC
:1008800008241AE0082418E0082416E0082414E0DC
:10089000082412E0082410E008240EE008240CE0EC
:1008A00008240AE0082408E0082406E04FF48672D1
:1008B000DFF8D415002000F07EFC2000C0B210BD8F
:1008C000509208100000044080B5C0B2002800F02B
:1008D000EA80022800F0EB80C0F0E780042800F0F6
:1008E000EA80C0F0E680062800F0E980C0F0E580EC
:1008F000082800F0E880C0F0E4800A2800F0E780D3
:10090000C0F0E3800C2800F0E680C0F0E2800E2802
:1009100000F0E580C0F0E180102800F0E480C0F035
:10092000E080122800F0E380C0F0DF80142800F09F
:10093000E280C0F0DE80162800F0E180C0F0DD80AB
:10094000182800F0E080C0F0DC801A2800F0DF807A
:10095000C0F0DB801C2800F0DE80C0F0DA801E28AA
:1009600000F0DD80C0F0D980202800F0DC80C0F0ED
:10097000D880222800F0DB80C0F0D780242800F047
:10098000DA80C0F0D680262800F0D980C0F0D5806B
:10099000282800F0D880C0F0D4802A2800F0D78022
:1009A000C0F0D3802C2800F0D680C0F0D2802E2852
:1009B00000F0D580C0F0D180302800F0D480C0F0A5
:1009C000D080322800F0D380C0F0CF80342800F0EF
:1009D000D280C0F0CE80362800F0D180C0F0CD802B
:1009E000382800F0D080C0F0CC803A2800F0CF80CA
:1009F000C0F0CB803C2800F0CE80C0F0CA803E28FA
:100A000000F0CD80C0F0C980402800F0CC80C0F05C
:100A1000C880422800F0CB80C0F0C780442800F096
:100A2000CA80C0F0C680462800F0C980C0F0C580EA
:100A3000482800F0C880C0F0C4804A2800F0C78071
:100A4000C0F0C3804C2800F0C680C0F0C2804E28A1
:100A500000F0C580C0F0C180502800F0C480C0F014
:100A6000C080522800F0C380C0F0BF80542800F03E
:100A7000C280C0F0BE80562800F0C180C0F0BD80AA
:100A8000582800F0C080C0F0BC805A2800F0BF8019
:100A9000C0F0BB805C2800F0BE80C0F0BA805D284A
:100AA00000F0BB80BBE00020C0E00020BEE00120E1
:100AB000BCE00120BAE00220B8E00320B6E0032049
:100AC000B4E00420B2E00420B0E00520AEE0052050
:100AD000ACE00620AAE00720A8E00920A6E00A2052
:100AE000A4E00B20A2E00B20A0E00C209EE00C2054
:100AF0009CE00D209AE00D2098E00E2096E00F205B
:100B000094E0102092E0112090E011208EE012205D
:100B10008CE012208AE0132088E0142086E0152063
:100B200084E0162082E0162080E018207EE0192064
:100B30007CE019207AE01A2078E01B2076E01C2067
:100B400074E01C2072E01C2070E01D206EE01D206F
:100B50006CE01D206AE01E2068E01E2066E01E207A
:100B600064E01F2062E01F2060E020205EE0202083
:100B70005CE021205AE0222058E0242056E0242086
:100B800054E0252052E0252050E026204EE027208A
:100B90004CE027204AE0282048E0282046E0292091
:100BA00044E0292042E02A2040E02C203EE02D2095
:100BB0003CE02E203AE02F2038E02F2036E0302095
:100BC00034E0302032E0312030E031202EE032209D
:100BD0002CE033202AE0342028E0342026E03520A1
:100BE00024E0352022E0362020E037201EE03820A7
:100BF0001CE039201AE0392018E03A2016E03A20AB
:100C000014E03B2012E03B2010E03B200EE03C20B3
:100C10000CE03C200AE03D2008E03D2006E040F2E8
:100C20007B129949002000F0C6FA0020C0B202BD34
:100C3000002007E09549C2018A5822F00042C30112
:100C4000CA50401C3F28F5DB704770B504000E0009
:100C5000002000202000C0B2FFF736FE8B4DC0B24E
:100C6000C0012844006A80B206FB00F642F2107010
:100C7000B6FBF0F62000C0B2FFF726FEC001284404
:100C8000B6B246612000C0B2FFF71EFE0100C9B235
:100C9000C9012944096C51F00101C0B2C0012844C6
:100CA000016470BD2DE9F041AAB004000D001600EA
:100CB000342100221DAF380000F0F8FA0020742122
:100CC00000226F46380000F0F1FA0E201E9020003E
:100CD000C0B2FFF740FC8DF87C002000C0B2FFF7E7
:100CE00086FA07005FF008082000C0B2FFF77FFA1D
:100CF0001DAA97FBF8F108FB11773900644BC0B2CD
:100D0000C010C001184400F0CEFB2000C0B2FFF7B5
:100D1000DBFD00220121C0B210F5937000B2FFF795
:100D20000AFA2000C0B2FFF7CFFDC0B210F59370F1
:100D300000B2FFF7FCF9092300220121C0B2FFF73E
:100D4000B5F92000C0B2FFF7BFFDC0B210F5937037
:100D500000B2FFF7ECF900220121C0B2FFF720FA40
:100D60004C48B0FBF5F1090C4A482A04B0FBF2F3F9
:100D700002FB1300002800D0491C022903D20020E6
:100D80008DF801002FE0032903D201208DF8010026
:100D900029E0052903D202208DF8010023E009296A
:100DA00003D203208DF801001DE0112903D2042095
:100DB0008DF8010017E0212903D205208DF80100EC
:100DC00011E0412903D206208DF801000BE08129B2
:100DD00003D207208DF8010005E040F2C9122A492C
:100DE000002000F0E8F904208DF8000001208DF8C3
:100DF000100000208DF8110003208DF81200032050
:100E00008DF8130000208DF80800224901229DF979
:100E100001008240B1FBF2F0B0FBF5F0401E0590FE
:100E20000598401C06FB00F642F21070B6FBF0F08D
:100E3000089002208DF8400003208DF86800012002
:100E40001B9001208DF828002000C0B2FFF73CFD68
:100E50000E4D6946C0B2C001284400F063FB20007B
:100E6000C0B2FFF731FDC0B2C001284400F05AFC07
:100E70002000C0B2FFF728FDC0B2C001284400F036
:100E800056FC2AB0BDE8F0812C8E081000005840B6
:100E90000000314000127A0082B000200190002052
:100EA00000900020019009E00098401C00900098FC
:100EB000B0F5005FF8D30198401C01900198B0F59F
:100EC000805F02D200200090F1E702B0704780B549
:100ED0000100002000F02AFE01BD2DE9F043ADF530
:100EE000137D0700884616001C000020ADF80200A4
:100EF0000020ADF80000002002900020ADF80400B2
:100F00000020ADF80600404601F030F80290DFF80E
:100F100064532888002801D028698047DFF85803E7
:100F20000078002800F033812888002800F0118123
:100F3000BDF90600411CADF806103A00010089B267
:100F40000020EB6898474746404601F00FF80290B2
:100F50006888A97990FBF1F0ADF804003800471CCF
:100F600000780028FAD10020ADF800000EE07F1EC6
:100F700038782F2802D038785C2804D1BDF80000DA
:100F8000401CADF800000298401E0290BDF8000021
:100F9000022802DA02980028E9D50298002806D42F
:100FA0007A1CDFF8D81253A800F0FCFF0EE0BDF861
:100FB0000000002805D13A00B14953A800F0F2FF23
:100FC00004E03A00AD4953A800F0ECFF0020ADF872
:100FD000020042E0BDF80010BDF80020BDF802306C
:100FE00053AF9BB2BDF90400434313FA82F0385C5F
:100FF00043AA89B25054BDF80000401CADF800006F
:10100000BDF8000080B2BDF9041088420EDA53A882
:1010100000F0ACFFBDF80020BDF802309BB2BDF976
:1010200004104B4313FA82F18842D3D2002043A923
:10103000BDF800208854BDF90600411CADF806102B
:1010400043AAE97911FB00F189B20020EB689847C7
:10105000BDF80200401CADF80200BDF8027053A8B4
:1010600000F084FFBDF90410B0FBF1F0401CBFB2EA
:10107000874203D20020ADF80000C1E73200814969
:1010800053A800F08FFFBDF90600411CADF8061013
:1010900053AAE97911FB00F189B20020EB68984767
:1010A000002C74D00020ADF8020041E0BDF8001023
:1010B000BDF80020BDF802309BB2BDF904004343E7
:1010C00013FA82F0205C43AA89B25054BDF80000A4
:1010D000401CADF80000BDF8000080B2BDF904105E
:1010E00088420EDA200000F041FFBDF80020BDF874
:1010F00002309BB2BDF904104B4313FA82F18842CF
:10110000D4D2002043A9BDF800208854BDF90600C0
:10111000411CADF8061043AAE97911FB00F189B230
:101120000020EB689847BDF80200401CADF80200B3
:10113000BDF80260200000F019FFBDF90410B0FBFB
:10114000F1F0401CB6B2864221D20020ADF800007A
:10115000C1E74FF4807100220DF10C09484600F000
:10116000A5F83800A9688847002C07D00094330000
:101170004246454903A800F015FF05E0330042460A
:10118000424903A800F00EFF03A8A96888470DF59F
:10119000137DBDE8F08310B537480078002809D0EA
:1011A0003C4C2100002000F0CFFC012221003848F7
:1011B00000F07DFF10BD38B50C001500C0B200284E
:1011C00003D135480078002800D131BD3349087873
:1011D000002800D0FEE70878401C087001F070F984
:1011E00000232A0021002E48FFF777FEFFF754FE68
:1011F000F6E710B514001A00C0B2002808D11E4846
:101200000078002804D00B0021002648FFF765FE77
:1012100010BD002101804FF6FF7141808180FF21C8
:101220008171C171002181600021C16000210161D3
:101230007047104902880A8042884A8082888A80E2
:1012400082798A71C279CA7182688A60C268CA600A
:1012500000690861012008490870704700B585B031
:101260006846FFF7D6FF104802906846FFF7E1FF97
:1012700005B000BDD0160228C61702289C910810A0
:1012800070910810A8910810B89008105891081093
:10129000A0160228C71702287A070228C8170228B2
:1012A00080910810B4910810CF0E081062F30F223D
:1012B00062F31F42401810F0030308D0C91A1FD36D
:1012C000DB0748BF00F8012D28BF20F8022D1300CE
:1012D00030B414461546103928BF20E93C00FAD82E
:1012E000490728BF20E90C0048BF40F8042D8900B9
:1012F00028BF20F8022D48BF00F8012D30BC7047F0
:10130000C91818BF00F8012DCB0728BF00F8012D20
:101310007047F0B40246106895681318506803EBE4
:101320005004C00748BF4D44A3422DD013F8016BB1
:1013300016F0030004BF13F8010BC01C31090F297C
:1013400007D113F8011B0F3103E013F8017B05F8F7
:10135000017B401EF9D10029E6D013F8010BC6F33A
:101360008106032E08BF13F8016B00EB06204042F4
:1013700028440026B71E8F421EBF10F8017B05F8D7
:10138000017B761CF6D1CFE7F0BC02F10C00704770
:1013900030B4614B1818C009604C14EB00140429D8
:1013A0000DD223681F25C8008540AB43D2B212F08E
:1013B0001F02C90012FA01F1194321600CE0091F54
:1013C00063681F25C8008540AB43D2B212F01F02EC
:1013D000C9008A401A43626030BC7047002A04D1B9
:1013E000012212FA01F1416003E0012212FA01F137
:1013F0008160704710B48900436C0F248C40A34374
:1014000012F00F0212FA01F11943416410BC704747
:1014100010B4836C01248C40A34312F0010212FA31
:1014200001F11943816410BC704710B4C36C0124EE
:101430008C40A34312F0010212FA01F11943C16476
:1014400010BC704710B449001031C36C03248C40A9
:10145000A34312F0030212FA01F11943C16410BC54
:1014600070474269012212FA01F1416140697047F7
:1014700010B4836901248C40A34312F0010212FAD4
:1014800001F11943816110BC704710B44900036C2D
:1014900003248C40A34312F0030212FA01F1194312
:1014A000016410BC7047F8B505000E001400002759
:1014B000002D2ED0002C2CD0226831002800FFF700
:1014C0008DFF227A31002800FFF762FF6269310048
:1014D0002800FFF79DFFA26931002800FFF7A5FF54
:1014E000E26931002800FFF7ADFF62683100280093
:1014F000FFF780FFE26831002800FFF7C6FF3100E8
:101500002800FFF7AEFF226931002800FFF7B0FF87
:1015100000E0034F3800F2BD0000CFBF00003040B4
:1015200001005A000122002800F0EC80002900F0A0
:10153000E980754A12680B7A63F392420B7B13F0D1
:10154000030363F311420B7813F0070363F31A628A
:101550008B7863F39E7291F8283063F3000291F860
:10156000343063F341020B7F63F382024B7F63F3FA
:10157000C30291F8403063F38A2291F84030DBB225
:101580005B08DBB263F3492291F8703063F3082201
:1015900091F8713013F0030363F30D3202600A7A9D
:1015A000002A02D10022826007E00A7A012A02D1D1
:1015B0004A69826001E0012282600A6A02614A6A25
:1015C0004261CA6A82610A6BC2614A6902628A69BF
:1015D00042624E4A126891F8443003F0FF03120A47
:1015E00012021A4391F84C3003F0FF0363F31742E1
:1015F00091F85C3003F0FF0363F31F6291F86C30E5
:1016000003F0FF0363F30F224264414A126891F82A
:10161000643003F0FF0363F30F2291F8543003F0BA
:10162000FF03120A12021A4382643A4A126891F8BE
:10163000413013F00303920892001A4391F860308E
:1016400013F0030363F38B2291F8483013F0030384
:1016500063F3051291F8503013F0030363F309228A
:1016600091F8583013F0030363F3871291F8683050
:1016700013F0030363F38302C264274A126891F8EC
:10168000723013F00703D208D2001A4391F8733076
:1016900013F0070363F30612426591F83520826761
:1016A0001E4A12680B7C13F00303920892001A433F
:1016B000CB7C13F0030363F387124B7C13F003031B
:1016C00063F383028B7C13F0030363F3051202655B
:1016D000134A1268CB8863F31F428B889BB21B0AA4
:1016E0009BB263F30F220B78052B06D1097901F029
:1016F000FF01120A12020A4302E0497861F307026D
:101700000263002210007047DC920810E09208107B
:10171000E4920810E8920810EC920810F092081079
:10172000F4920810016851F00041016070474030A8
:10173000016851F01001016070470268531C03609A
:1017400011707047022801D3012010E00B00DBB2BA
:10175000042B01DB01200AE0DFF8CC3703EB80002B
:10176000C9B2405C824201D3012000E000207047F2
:10177000F8B504000F0015001E00022C01D3012053
:101780002AE02A003900C9B22000FFF7DBFF012858
:1017900001D1012020E006983900C9B202291ED1EA
:1017A000B6F5803F19D2202817D24FF4C052DFF887
:1017B0007C1763030B4403EB850313441F6866F334
:1017C00017271F606403214401EB850111440A6857
:1017D00060F3C7020A600020F2BD0120FCE7FFB2FF
:1017E000032F1FD1B6F1807F1AD2202818D24FF4D0
:1017F000E052DFF8381763030B4403EB850313440F
:101800001F6807F0FF0757EA06271F60640321449B
:1018100001EB850111440A6860F3C7020A60DAE748
:101820000120D9E70120D7E700B20012C0B270470B
:10183000F8B505000E001700280000B2FFF7F4FF0E
:1018400004002000C0B2022801D3012024E03A00A5
:101850003100C9B22000C0B2FFF774FF012801D1E6
:10186000012019E0DFF8C4162000C0B2400308448C
:101870002A00D2B200EB8200D0F8000CF6B266F378
:10188000092067F30700E4B264032144EDB201EBE1
:101890008501C1F8000C0020F2BD70B504000D00F8
:1018A0001600022C01D301201DE032002900C9B22C
:1018B0002000FFF747FF012801D1012013E0DFF8E6
:1018C0006C166003085850F0004050F0407050F41F
:1018D0007F00EDB265F3092066F3070062038850CC
:1018E00064030859002070BDD0F840037047D0F859
:1018F0000803C005C00D7047C0F840127047D0F80B
:101900000802C005C00D7047D0F80802C0F3C0300F
:10191000704738B505002800FFF7F1FF04002800E4
:10192000FFF7F2FF0419002C01D1012000E0002094
:10193000C0B232BDC0F8C81F7047D0F8C80F70479A
:10194000C0F8881F7047D0F8880F7047016851F0C1
:1019500000410160704738B504001500C9B2002984
:1019600006D002291ED010D3042935D027D340E059
:10197000DFF8BC05A06001202073112060734FF4D4
:101980008C70E0811220208239E0DFF8A805A06089
:10199000012020731120607340F21D10E0816B2044
:1019A00020822CE0DFF89005A06001202073112038
:1019B00060734FF48E70E0816A2020821FE0DFF8B0
:1019C0007C05A060022020731120607340F21B1080
:1019D000E0816920208212E0DFF86405A060012028
:1019E0002073132060734FF48D70E0816820208293
:1019F00005E07C22DFF84C150020FFF7DCFBEDB2A0
:101A0000002D06D0022D1ED010D3042D35D027D3A3
:101A100040E0DFF81C05206000202071112060717B
:101A20004FF48C70E0811220208239E0DFF8040549
:101A30002060002020711120607140F21D10E081B3
:101A40006B2020822CE0DFF8F00420600020207161
:101A5000112060714FF48E70E0816A2020821FE0B7
:101A6000DFF8D8042060012020711120607140F25D
:101A70001B10E0816920208212E0DFF8C40420609E
:101A800000202071132060714FF48D70E081682078
:101A9000208205E0A822DFF8AC140020FFF78BFBC2
:101AA00031BD10B5C0B2002806D002280AD006D336
:101AB00004280DD009D30EE0DFF88C4411E0DFF8E4
:101AC0008C440EE0DFF888440BE0DFF8884408E03F
:101AD000DFF8844405E0BD22DFF868140020FFF73A
:101AE0006AFB200010BD38B50400DFF87054C9B29D
:101AF0002000C0B255F82000FFF7FEFE2000C0B263
:101B000055F82000FFF705FF0028F7D031BD70B56C
:101B100005000E00140006E031782800C0B2FFF77F
:101B2000E2FF641E761C002CF6D170BD38B50400AF
:101B30000D0005E029782000C0B2FFF7D4FF6D1C2E
:101B400028780028F6D131BD70B504000D000020C2
:101B5000DFF808642000C0B256F82000FFF7C7FE87
:101B6000002807D0E4B256F82400FFF7BDFE287025
:101B7000012000E00020C0B270BD70B505000C006F
:101B8000DFF8D8632800C0B256F82000FFF7DBFE6C
:101B90004008400001002800C0B256F82000FFF7BE
:101BA000CFFE2800C0B256F82000FFF7CCFE30F080
:101BB000020001002800C0B256F82000FFF7C0FE66
:101BC0002800C0B256F82000FFF7BDFE30F020001C
:101BD00001002800C0B256F82000FFF7B1FE28002F
:101BE000C0B256F82000FFF7AEFE30F04000010012
:101BF0002800C0B256F82000FFF7A2FE2800C0B2AD
:101C000056F82000FFF79FFE30F01000010028007A
:101C1000C0B256F82000FFF793FE2800C0B256F875
:101C20002000FFF790FE30F4807001002800C0B261
:101C300056F82000FFF784FE2800C0B256F82000B6
:101C4000FFF781FE30F4806001002800C0B256F832
:101C50002000FFF775FE002C0ED02800C0B256F809
:101C60002000FFF76AFE50F400700100EDB256F854
:101C70002500FFF765FE0DE02800C0B256F82000F1
:101C8000FFF75BFE30F400700100EDB256F825005E
:101C9000FFF756FE70BD70B505000C00DFF8BC62A2
:101CA0002800C0B256F82000FFF747FE4008400069
:101CB00001002800C0B256F82000FFF73BFE2800C4
:101CC000C0B256F82000FFF738FE30F008000100DF
:101CD0002800C0B256F82000FFF72CFE2800C0B242
:101CE00056F82000FFF729FE30F020000100280000
:101CF000C0B256F82000FFF71DFE2800C0B256F80B
:101D00002000FFF71AFE30F4807001002800C0B2F6
:101D100056F82000FFF70EFE2800C0B256F820004B
:101D2000FFF70BFE30F4007001002800C0B256F837
:101D30002000FFF7FFFD2800C0B256F82000FFF793
:101D4000FCFD30F4006001002800C0B256F820000D
:101D5000FFF7F0FD002C0ED02800C0B256F820008E
:101D6000FFF7EBFD50F004000100EDB256F825003E
:101D7000FFF7E0FD0DE02800C0B256F82000FFF7A5
:101D8000DCFD30F004000100EDB256F82500FFF74D
:101D9000D1FD70BD2DE9F841A7B005000F00160078
:101DA00028003100C0B2C9B2884201D1012000E050
:101DB00000201C00DFF88C814FF4CE724146C0B287
:101DC000FFF7F9F928002100C0B2C9B2884201D159
:101DD000012000E0002040F29D124146C0B2FFF712
:101DE000EAF902A8142100F093FB342100220DF13E
:101DF00068084046FFF75AFA4C2100220DF11C08F2
:101E00004046FFF753FAFF003A00002354480021F0
:101E100000F082FB07002200D2B23100C9B202A852
:101E2000FFF799FD08201B909DF80D008DF87000BC
:101E30001AAA9DF80C100298FFF735FB06201B909C
:101E40009DF80D008DF870001AAA9DF814100498E2
:101E5000FFF729FB00200790082008900820099030
:101E600002200B9000200C90002012900020149073
:101E70003A4C2800C0B254F8200000F0A7FD3949C0
:101E80002A00D2B2382042430A4407A92800C0B22F
:101E900054F8200000F058FC2800C0B254F820008C
:101EA000FFF754FD2A00D2B20321BDF91600FFF757
:101EB000BFFCBDF91600FFF7B7FC17F01F0100913A
:101EC000C7F357132A00D2B20321C0B2FFF750FC68
:101ED000BDF91600FFF7A8FC2A00D2B20321C0B258
:101EE000FFF7DBFCBDF91800ADF800000320ADF8EA
:101EF000020001208DF8040007221B482900C9B206
:101F000050F82110684600F0E7FA00212800C0B21E
:101F1000FFF7C1FE00212800C0B2FFF72EFE28B057
:101F2000BDE8F0810000000050920810000004405D
:101F3000000031400002314000053140800831404E
:101F400000073140E48E081000006040000065404A
:101F5000000064400000634000006240580702280F
:101F600000809698A01202284407022800F101037D
:101F7000810704D010F8011B820781B1FAD10268F1
:101F8000A2F10131914311F0803104BF50F8042FC8
:101F9000F6E709BAB1FA81F100EBD100401CC01A92
:101FA000704700000CB430B583B00A4606A9029110
:101FB000044600250194009502AB01A90848784425
:101FC0001E3000F057FD019A157000284EBF0446E0
:101FD0000198041B204603B030BC5DF80CFB00BF29
:101FE0005BF7FFFF82688918816003E082684169BE
:101FF000521A8260816842699142F7D27047C26882
:102000008918C16003E0C2684169521AC260C168A0
:1020100042699142F7D2704770B50400002C01D09C
:10202000012000E000205422DFF8FC13C0B2FFF7CB
:10203000C2F80025207850F0010020700020A06038
:102040000020E060606920616078002803D00228E9
:1020500010D007D315E06169002266683000FFF7F1
:1020600025F90EE061694900002266683000FFF73B
:102070001DF906E061698900002266683000FFF7FB
:1020800015F9002020702800C0B270BD10B5040002
:10209000002C01D0012000E000207022DFF888131E
:1020A000C0B2FFF788F860692169401A10BD2DE9B8
:1020B000F84305001600002D01D0012000E00020AB
:1020C0000C00AA22DFF86013C0B2FFF774F80027F3
:1020D0000020002C01D10327B5E0287810F0050F6F
:1020E00001D00427AFE0287850F004002870286958
:1020F000B042C0F0A380D5F81480A868B8EB0008FF
:10210000B04567D26878002803D0022841D01FD399
:1021100090E0424621006868AB6800EB030948463E
:1021200000F03AFD41462800FFF75CFFB6EB0802DD
:1021300004EB08016868AB6800EB0304200000F0C2
:102140002BFDB6EB080841462800FFF74BFF71E076
:102150005FEA480221006868AB6800EB4309484623
:1021600000F01AFD41462800FFF73CFFB6EB0802DD
:10217000520004EB48016868AB6800EB43042000A0
:1021800000F00AFDB6EB080841462800FFF72AFFD9
:1021900050E05FEA880221006868AB6800EB8309C1
:1021A000484600F0F9FC41462800FFF71BFFB6EB5C
:1021B0000802920004EB88016868AB6800EB8304B6
:1021C000200000F0E9FCB6EB080841462800FFF7C4
:1021D00009FF2FE06878002803D002281DD00ED315
:1021E00028E0320021006868AB6800EB030420009F
:1021F00000F0D2FC31002800FFF7F4FE1AE0720074
:1022000021006868AB6800EB4304200000F0C4FCC8
:1022100031002800FFF7E6FE0CE0B20021006868FC
:10222000AB6800EB8304200000F0B6FC310028000E
:10223000FFF7D8FE2869861B2E6100E00527287865
:1022400010F0FB0028703800C0B2BDE8F2832DE921
:10225000F04705000E001F00002D01D0012000E016
:1022600000201400DFF8C08140F25B124146C0B28A
:10227000FEF7A1FF002C01D0012000E000204FF468
:10228000AE724146C0B2FEF796FF5FF00008002034
:102290000020002E02D15FF003088BE0297811F0B6
:1022A000030F03D020605FF006089CE02800FFF7D2
:1022B000EDFE2168884209D220605FF007080028FF
:1022C00004D1287810F0F70028708CE0287850F0BE
:1022D00008002870D5F81490E868B9EB0009206868
:1022E000814522D36878002803D0022813D008D370
:1022F0005CE022686868E9680144300000F04CFC4A
:1023000054E0226852006868E96800EB410130003F
:1023100000F042FC4AE0226892006868E96800EB3D
:102320008101300000F038FC40E06878002803D0DC
:10233000022827D011D339E04A466868E968014489
:10234000B246504600F028FC2268B2EB09026968E8
:102350004E44300000F020FC28E05FEA4902686843
:10236000E96800EB4101B246504600F015FC2268D6
:10237000B2EB09025200696806EB4906300000F032
:102380000BFC13E05FEA89026868E96800EB8101F1
:10239000B246504600F000FC2268B2EB09029200FF
:1023A000696806EB8906300000F0F6FB287810F02B
:1023B000F7002870FFB2002F15D128780B2802D122
:1023C0005FF002080FE0287850F0020028702168C2
:1023D0002800FFF714FE2969206841182961287830
:1023E00010F0FD0028704046C0B2BDE8F087F8B597
:1023F00004000E0017001D00002C01D0012000E099
:1024000000204FF407720849C0B2FEF7D4FE002046
:1024100067600021217066700021A1600021E160E9
:1024200025616561C0B2F2BDD08D0810010009B20E
:10243000002908D4012210F01F018A401B4900B274
:10244000400941F820207047010009B2002908D452
:10245000012210F01F018A40154900B2400941F8DD
:1024600020207047020012B2002A04D44901114A08
:1024700000B2115407E049010F4A00B210F00F00FA
:10248000104400F8041C7047002800D162B60B48C5
:102490000168491C0160704772B608490868002845
:1024A00002D00868401E08600868704700E100E03C
:1024B00080E200E000E400E018ED00E09C17022854
:1024C00080B5FFF7E9FFFEF7B3FB01BD80B5C9B2E8
:1024D00000B2FFF7C7FF01BD70B504000D00160084
:1024E000200000F0ADFB2900B4F9000000F0E7FB8C
:1024F0003100C9B2B4F90200FFF7E8FFB4F90200F5
:10250000FFF7A2FFB4F90200FFF790FF70BD0000D3
:10251000002200F0EBBB0000BBBBE1B1B2F5803F95
:1025200080F07E80022A1ED98C46B1FBF2F102FBBC
:1025300011C31B0443EA1043B3FBF2FC02FB1C3340
:1025400080B240EA0343B3FBF2F002FB103240EAF0
:102550000C4000237047022A05D98446B0FBF2F0F4
:1025600002FB10C270474AB105D100F001024908D0
:102570005FEA3000704700220023704700F0D0BBB4
:102580000B000200002100207047904271EB030C09
:10259000F6D3B3F5803F2FD2F0B5B3FA83F7B1FA93
:1025A00081F4A7F10F0E3D1B5340CEF1200602FA35
:1025B0000EF2F3415340B5F10F0746D80F3C2C44BF
:1025C0004140C4F12006A040F1414140B1FBF3F687
:1025D00003FB1611A2FB0645001BA94102D2761E81
:1025E0008018594180EA010221FA0EF362FA0EF2D4
:1025F00000215A403046F0BD30B4B1FBF3FC03FB80
:102600001C11A2FB0C45001BA94103D2ACF1010C2B
:102610008018594130BC02460B4660460021704785
:10262000B2F1807F65D3F0B5B2FA82F7B1FA81F4E6
:10263000C7F10F063D1B22FA06F307F1110EF24116
:1026400020355A40B5F10F07B8D94140C4F12006F2
:10265000A040F1414140B1FBF3FC03FB1C11A2FB84
:102660000C45001BA94103D2BCF1010C8018594153
:102670000F2F12D30F3FC90341EA5041B1FBF3F6CC
:1026800003FB1611A2FB0645D4EBC030A94102D2D0
:10269000761E8018594146EACC3C07B34140C7F149
:1026A0002006B840F1414140B1FBF3F603FB16119F
:1026B000A2FB0645001BA94102D2761E8018594193
:1026C00080EA010221FA0EF3C7F1200462FA0EF249
:1026D0000CFA07F05A402CFA04F13043F0BD80EABE
:1026E000010221FA0EF3002162FA0EF260465A400E
:1026F000F0BD8C46B1FBF2F102FB11C31B0243EAB1
:102700001063B3FBF2FC02FB1C331B024CEA0020FB
:1027100043EA1063B3FBF2FC02FB1C331B024CEADE
:10272000002043EA1063B3FBF2FC02FB1C331B02E4
:102730004CEA002043EA1063B3FBF2FC02FB1C32BC
:102740004CEA0020002370472DE9F44FDFF8D8222F
:10275000DFF8D8321B68DFF8D8422468DFF8D4529B
:102760002D68DFF8D4623668DFF8D0723F68DFF892
:10277000D0C2DCF800C0DFF8CCE2DEF800E0DFF821
:10278000C882D8F80080DFF8C492D9F80090DFF84A
:10279000C0A2DAF800A0002800F01581002900F09E
:1027A00012810A68022A06D191F82620002A02D155
:1027B0005FF0000B03E0D1F804B0BBF1010B91F81E
:1027C0002420002A01D0012200E0002262F31043FD
:1027D00033F440436BF30303022262F31963036093
:1027E0000A7812F0030262F31964046491F8252058
:1027F000002A01D0012200E0002262F38615CA7E81
:10280000002A01D0012200E0002262F38A254A7EDC
:10281000002A01D0012200E0002262F308258A7E0E
:10282000002A01D0012200E0002262F349258A6BD0
:10283000521E12F00F0262F313450A69521E12F083
:102840000702ED08ED0015434A6962F304154A6971
:10285000520862F3451585640A7B002A01D00122E3
:1028600000E0002262F308260A7E002A01D001223D
:1028700000E0002262F349268A68521E12F01F020D
:10288000760976011643C0F800630A7F02F0FF0262
:102890003F0A3F02174391F8202002F0FF0262F343
:1028A0001747C0F8107391F82720002A01D00122A1
:1028B00000E0002262F3082C0A69521E12F007029F
:1028C0005FEADC0C5FEACC0C52EA0C0C4A6962F35A
:1028D000041C4A69520862F3451CC0F844C00A7BD4
:1028E000002A01D0012200E0002262F3082E8A684B
:1028F000521E12F01F025FEA5E1E5FEA4E1E52EA8F
:102900000E0E0A68012A01D1012200E0002262F3C2
:10291000104EC0F800E291F83C2002F0FF025FEA9E
:1029200018285FEA082852EA0808C0F8048391F8DA
:102930002820002A01D0012200E0002262F3596918
:10294000CA6A012A01D1012200E0002262F318695B
:102950004A6B012A01D1012300E00023009A63F3AE
:10296000104991F8303003F0FF035FEA19295FEA5C
:10297000092953EA0909C0F8509091F8443003F04E
:10298000FF035FEA1A2A5FEA0A2A53EA0A0AC0F832
:1029900004A28B6CC0F8883F096CC0F8C81F002ADD
:1029A00010D00020506000201060002090600020B7
:1029B000D060002010620020D06200201063DFF899
:1029C0009400506300221000BDE8F28FDFF88810F9
:1029D00001605FF4401101640021816440F207113D
:1029E000C0F800130022C0F804230022C0F810230E
:1029F00000224264C0F800120021C0F80412002135
:102A000001650021C0F8C81E0021C0F8881E002101
:102A1000C0F8C81F0021C0F8881F0021C0F8081F97
:102A20000021C0F8481F70470160AA009892081062
:102A30009C920810A0920810A4920810A892081066
:102A4000AC920810B0920810B4920810B892081016
:102A5000BC920810EFCDAB000F00000370B5054627
:102A60001C000846164604D016F8011BA847641E31
:102A7000FAD170BD2DE9FC4383B0814688461746E4
:102A80001D4607E001233A4641464846FFF7E6FF68
:102A900080467F1C3878E0B12528F3D17978BF1CB7
:102AA000252912D058295CD0632915D0642918BF74
:102AB000692917D06F2954D0702957D073295BD05A
:102AC000752918BF78294CD0E4E74046C8478046AE
:102AD000E0E705B0BDE8F083286850F8041B2860E3
:102AE000C9B2F2E7286850F8046B2860002E03D5BD
:102AF0002D214046C847804664216F2908BF08221F
:102B000005D041F02000782814BF0A2210220B249F
:102B10006429304602D1002E48BF4042B0FBF2FC8F
:102B200002FB1C003030641EC3B23A2B05DA0DF8EC
:102B300004005FEA0C0003D104E040185138F6E7C6
:102B4000002CEBDC614211F10B0F0DEB040640464B
:102B5000BDD0C4F10B0416F8011BC847641EFAD19E
:102B6000B5E7286850F8046B2860C6E7286850F875
:102B7000046B28607821C0E7286850F8046B28604F
:102B80003046FFF7F3F904004046A0D016F8011BC9
:102B9000C847641EFAD19AE762B38B0708D0521E69
:102BA00011F8013B00F8013B00F024808B07F6D1BF
:102BB000830740F0208000BF103A07D330B4B1E85B
:102BC0003810103AA0E83810F9D230BC530724BFAF
:102BD000B1E80810A0E8081044BF51F8043B40F8E1
:102BE000043BD20724BF31F8022B20F8022B44BF4C
:102BF0000B7803707047121F17D35B0009D151F88F
:102C0000043B20F8023B1B0C121F20F8023BF6D2BB
:102C10000BE051F8043B00F8013B1B0A20F8023B93
:102C20001B0C121F00F8013BF3D238BF121D521EBD
:102C300024BF11F8013B00F8013BF8D870470000B1
:102C400030B40021234A1368234A1468002832D084
:102C5000224A1568C5F303250E2D0FD01268C2F362
:102C600003220D2A28D1827812F00F0224092401B0
:102C700014430279002A15D0012214E0827812F060
:102C80000F021B091B0113430279002A01D0012204
:102C900000E0002262F3DF73114AB0F9000042F84D
:102CA000203009E0002262F3DF740E4AB0F9000020
:102CB00042F8204000E00649080030BC70470A4B4B
:102CC0001A68002A03D01A6800B242F82010704730
:102CD00001005600C0920810C49208100000204065
:102CE00000A0204000C020401407022800B500BF0B
:102CF000130096469446103928BFA0E80C50FAD825
:102D00005FEA417C28BF0CC048BF40F8042BC907CC
:102D100028BF20F8022B48BF00F8012B00BD00009F
:102D200070470000D0F80803C005C00D704710F5CB
:102D300041710A6852F480320A6010F541710A68E4
:102D400032F480320A60D0F804037047C0F84012B1
:102D50007047D0F80802C005C00D7047D0F80802CF
:102D6000C0F3C030704738B505002800FFF7F1FF09
:102D700004002800FFF7F2FF0419002C01D1012004
:102D800000E00020C0B232BD0068C0F381300028EE
:102D900001D1802000E040207047016851F00041DF
:102DA000016070472030026861F39B6202607047E7
:102DB00080B5FFF7B7FF02BD80B5FFF7B8FF01BDD3
:102DC000022801D3012010E00B00DBB2042B01DB51
:102DD00001200AE0DFF8343603EB8000C9B2405C22
:102DE000824201D3012000E000207047F8B50400C2
:102DF0000F0015001E00022C01D301202AE02A003A
:102E00003900C9B22000FFF7DBFF012801D1012002
:102E100020E006983900C9B202291ED1B6F5803FDC
:102E200019D2202817D24FF4C052DFF8E4156303FB
:102E30000B4403EB850313441F6866F317271F60D9
:102E40006403214401EB850111440A6860F3C70261
:102E50000A600020F2BD0120FCE7FFB2032F1FD162
:102E6000B6F1807F1AD2202818D24FF4E052DFF852
:102E7000A01563030B4403EB850313441F6807F09D
:102E8000FF0757EA06271F606403214401EB850111
:102E900011440A6860F3C7020A60DAE70120D9E743
:102EA0000120D7E700B20012C0B27047F8B50500A4
:102EB0000E001700280000B2FFF7F4FF0400200006
:102EC000C0B2022801D3012024E03A003100C9B287
:102ED0002000C0B2FFF774FF012801D1012019E0E2
:102EE000DFF82C152000C0B2400308442A00D2B2FB
:102EF00000EB8200D0F8000CF6B266F3092067F30D
:102F00000700E4B264032144EDB201EB8501C1F88E
:102F1000000C0020F2BD70B504000D001600022C5C
:102F200001D301201DE032002900C9B22000FFF7C3
:102F300047FF012801D1012013E0DFF8D41460031A
:102F4000085850F0004050F0407050F47F00EDB24F
:102F500065F3092066F3070062038850640308598B
:102F6000002070BD0100C020C9B2002903D0022991
:102F700005D002D304E0122002E0622000E07A20B3
:102F8000C0B270470100C020C9B2002903D0022995
:102F900005D002D304E0112002E0612000E0792096
:102FA000C0B270470100C020C9B2002903D0022975
:102FB00005D002D304E0102002E0602000E0782079
:102FC000C0B270470100C020C9B2002908D0022950
:102FD0000AD007D304290BD008D305290AD00AE068
:102FE000132008E0142006E0632004E0642002E0DF
:102FF0007B2000E02920C0B2704701000020C9B248
:10300000002903D0022905D002D304E0132002E0F6
:10301000132000E01320C0B2704701000020C9B2A5
:10302000002903D0022905D002D304E0132002E0D6
:10303000132000E01320C0B2704701000020C9B285
:10304000002903D0022905D002D304E0132002E0B6
:10305000132000E01320C0B2704701000020C9B265
:10306000002908D002290AD007D304290BD008D39D
:1030700005290AD00AE0132008E0132006E01320F7
:1030800004E0132002E0132000E01320C0B27047D8
:10309000C9B2082902D0102946D096E0DFF82815D9
:1030A0000200D2B251F82220126832F440420300EA
:1030B000DBB251F823301A600200D2B251F822205C
:1030C000D2F80022520952010300DBB251F823303A
:1030D000C3F800220200D2B251F82220D2F8002216
:1030E00052F007020300DBB251F82330C3F800228C
:1030F0000200D2B251F82220D2F800235209520124
:103100000300DBB251F82330C3F800230200D2B22F
:1031100051F82220D2F8002352F00702C0B251F831
:103120002000C0F8002350E0DFF89C140200D2B267
:1031300051F82220126832F440420300DBB251F809
:1031400023301A600200D2B251F82220126852F4E1
:1031500080420300DBB251F823301A600200D2B281
:1031600051F82220D2F80022520952010300DBB2AA
:1031700051F82330C3F800220200D2B251F82220C5
:10318000D2F8002252F00F020300DBB251F82330D4
:10319000C3F800220200D2B251F82220D2F8002354
:1031A000520952010300DBB251F82330C3F8002367
:1031B0000200D2B251F82220D2F8002352F00F02BE
:1031C000C0B251F82000C0F800237047F8B50400E1
:1031D0000E0008212000C0B2FFF75AFFDFF8EC53C1
:1031E0002000C0B2285C06280FD02000C0B2285CA6
:1031F000C010DFF8DC1311EBC01101202200D2B2A5
:10320000AA5C12F0070290400860DFF8BC73F6B2C7
:1032100031002000C0B257F82000FFF797FD2000D2
:10322000C0B257F82000FFF7AFFD06002000C0B283
:1032300057F82000FFF78DFD8642F0D02000C0B285
:1032400057F82000FFF78FFD0028F7D02000C0B20C
:10325000285C06280ED02000C0B2285CC010DFF821
:10326000741311EBC0110120E4B22A5D12F00702C1
:1032700090400860F1BD2DE9F84307000D001400EF
:1032800010213800C0B2FFF703FFDFF840633800B9
:10329000C0B2305C06280FD03800C0B2305CC0101D
:1032A000DFF82C1311EBC01101203A00D2B2B25C4E
:1032B00012F0070290400860DFF80C83298838007C
:1032C000C0B258F82000FFF741FDAD1C3800C0B275
:1032D00058F82000FFF758FD81463800C0B258F872
:1032E0002000FFF736FD8145F0D0641E002CE3D1AD
:1032F0003800C0B258F82000FFF735FD0028F7D09D
:103300003800C0B2305C06280ED03800C0B2305C45
:10331000C010DFF8C01211EBC0110120FFB2F25D46
:1033200012F0070290400860BDE8F1832DE9F041FA
:1033300004000F00160008212000C0B2FFF7A8FE0D
:10334000DFF888522000C0B2285C06280FD0200089
:10335000C0B2285CC010DFF8781211EBC011012058
:103360002200D2B2AA5C12F0070290400860DFF897
:103370005882FFB239002000C0B258F82000FFF791
:10338000E5FC2000C0B258F82000FFF7FDFC070064
:103390002000C0B258F82000FFF7DBFC8742F0D0D5
:1033A000F6B231002000C0B258F82000FFF7CEFC82
:1033B0002000C0B258F82000FFF7E6FC060020000D
:1033C000C0B258F82000FFF7C4FC8642F0D02000BD
:1033D000C0B258F82000FFF7C6FC0028F7D0200044
:1033E000C0B2285C06280ED02000C0B2285CC010F5
:1033F000DFF8E01111EBC0110120E4B22A5D12F0F8
:10340000070290400860BDE8F0810000509208106B
:1034100000000440F8B504000D0000200821200041
:10342000C0B2FFF735FE694E2000C0B2305C0628FE
:103430000ED02000C0B2305CC010654911EBC01145
:1034400001202200D2B2B25C12F007029040086064
:103450005D4FEDB229002000C0B257F82000FFF701
:1034600075FC2000C0B257F82000FFF7A1FC00282F
:10347000F7D02000C0B257F82000FFF79DFC0021D4
:103480002000C0B257F82000FFF760FC2000C0B257
:1034900057F82000FFF767FC0028F7D02000C0B2E3
:1034A00057F82000FFF784FC0028F7D02000C0B2B6
:1034B00057F82000D0F840032100C9B2715C0629FA
:1034C0000ED02100C9B2715CC910DFF8082112EBDF
:1034D000C1120121E4B2335D13F00703994011607A
:1034E000C0B2F2BD2DE9F84380460D0016001C0065
:1034F00008214046C0B2FFF7CBFD344F4046C0B272
:10350000385C06280ED04046C0B2385CC010304946
:1035100011EBC01101204246D2B2BA5C12F0070290
:1035200090400860DFF8A090EDB229004046C0B29C
:1035300059F82000FFF70AFC4046C0B259F82000B5
:10354000FFF736FC0028F7D04046C0B259F82000FB
:10355000FFF732FC00214046C0B259F82000FFF7C7
:10356000F5FB4046C0B259F82000FFF7FCFB0028ED
:10357000F7D04046C0B259F82000FFF719FC0028E8
:10358000F7D04046C0B259F82000D0F84003307060
:10359000761C641E002CDDD14046C0B2385C062883
:1035A0000FD04046C0B2385CC0100A4911EBC011C0
:1035B00001205FFA88F817F8082012F007029040FF
:1035C0000860BDE8F183000038070228A017022830
:1035D00004003140080031402DE9F04F9DB0040057
:1035E0000D001E009200002396480021FEF794FF74
:1035F0000700342100220DF104084046FDF756FE75
:103600003C2100220DF138084046FDF74FFE200016
:103610003100C0B2C9B2884201D1012000E00020CF
:10362000DDF89890DFF820A240F286325146C0B211
:10363000FDF7C1FD30004946C0B2C9B2884201D190
:10364000012000E00020DDF89C8040F287325146E6
:10365000C0B2FDF7B0FD062002904846C0B2FFF7A9
:10366000DCFC8DF80C004846C0B2FFF78BFC8246AC
:103670005FF0080B4846C0B2FFF784FCDFF8CC913E
:1036800001AA9AFBFBF10BFB11AA5146C0B2C01074
:10369000C0014844FDF707FF062002903000C0B289
:1036A000FFF7ABFC8DF80C003000C0B2FFF75AFCFE
:1036B00082465FF0080B3000C0B2FFF753FC01AA4E
:1036C0009AFBFBF10BFB11AA5146C0B2C010C0011E
:1036D0004844FDF7E8FE4046C0B203281ED008204B
:1036E00002904046C0B2FFF7A8FC8DF80C0040469F
:1036F000C0B2FFF757FC06005FF0080A4046C0B2B0
:10370000FFF750FC01AA96FBFAF10AFB11663100A3
:10371000C0B2C010C0014844FDF7C5FE289E30006D
:10372000C0B206281ED0062002903000C0B2FFF7BB
:1037300094FC8DF80C003000C0B2FFF743FC8046CB
:103740005FF0080A3000C0B2FFF73CFC01AA98FB0A
:10375000FAF10AFB11884146C0B2C010C0014844CA
:10376000FDF7A1FE2200D2B2121D03212000C0B23B
:1037700000F21F1000B2FFF799FB2000C0B200F268
:103780001F1000B2FFF78EFB17F01F010091C7F367
:1037900057132200D2B2121D0321C0B2FFF726FB3D
:1037A0002000C0B200F21F1000B2FFF77BFB220026
:1037B000D2B2121D0321C0B2FFF7ADFBEDB2002D56
:1037C00005D0022D09D005D3032D09D00AE0002031
:1037D000109007E00120109004E00220109001E01A
:1037E0000320109001200E9000200F9004201190D3
:1037F000082012900820139001208DF8500001201D
:103800008DF853000E4D00220EA92000C0B255F8CD
:10381000200000F01DF800212000C0B255F8200063
:10382000FFF7C0FA2000C0B255F82000FFF7B5FA44
:103830000248E4B206551DB0BDE8F08FA01702287B
:103840003807022800809698888E081000003140C2
:103850002DE9F041DFF8D0311C00DFF8D051D5F868
:1038600000C0DFF8CC512D68DFF8C8613668DFF89A
:10387000C8713F685FF0000E5FF0000E002800F096
:10388000D080002900F0CD804C68002C01D18C68DC
:1038900005E04C68022C01D1002400E00224D1F89C
:1038A00010E0D1F81480C64502D3D1F810E001E051
:1038B000D1F814E0BEF1090F08D23CF4404C91F865
:1038C0002130002B12D05CF4807C11E0BEF1110F8E
:1038D00003D2012363F38F3CF1E7BEF1210F03D242
:1038E000022363F38F3CEAE718009BE03CF4807C02
:1038F000CB685B1E13F00F035FEA1C1C5FEA0C1C15
:1039000053EA0C0C012363F3196CC0F800C00B7F61
:10391000002B01D0002300E0012363F300054B6876
:103920001B0963F34105CB7E63F304154B7E63F300
:1039300045150B68012B01D1012300E0002363F33F
:10394000DF7523005B0863F3820564F3C3054B7FD7
:1039500063F308258B7F63F34925CB7F63F38A25C7
:1039600091F8203063F3CB250B7913F0030363F355
:10397000196505620B7E63F308278B7E63F3492785
:103980000B695B1E13F01F037F097F011F43C0F803
:10399000007391F8243003F0FF0310F5417425689B
:1039A0002D0A2D022B4323600B7E63F308264B69FF
:1039B0005B1E13F01F03760976011E43C0F80062F8
:1039C00091F82C3003F0FF0310F5017425682D0ADF
:1039D0002D022B4323600B6BC0F8883F8B6AC0F825
:1039E000C83F91F8383010F57064256863F34925B5
:1039F000256091F8391010F574631C6861F3CB24CD
:103A00001C600021C0F8C81E002A09D000201060E8
:103A1000002090610020D0600020D0610748106233
:103A200000242000BDE8F0810140AA00889208101F
:103A30008C9208109092081094920810EFCDAB0071
:103A400080B501000820DFF858271060C9B20120B6
:103A5000FFF7BCFB0820DFF85417086001BD2DE913
:103A6000F047060015001F00DFF838873000B8F86F
:103A7000002080B2904201D2012000E000200C0022
:103A8000DFF82497AF224946C0B2FDF794FBDFF878
:103A900020A72000BAF8001080B2884201D201208D
:103AA00000E00020B0224946C0B2FDF784FB2800A8
:103AB000B8F8001080B2884201D2012000E0002056
:103AC000B1224946C0B2FDF776FB3800BAF80010C3
:103AD00080B2884201D2012000E00020B222494693
:103AE000C0B2FDF768FBDFF8CC060078002801289B
:103AF00003D9801E01282FD95CE02A20FFF7A0FF00
:103B000000210120FFF762FBB61C3100C9B2012081
:103B1000FFF75CFB00210120FFF758FBAD1C2900DB
:103B2000C9B20120FFF752FB2B20FFF789FF0021CC
:103B30000120FFF74BFB641C2100C9B20120FFF7F5
:103B400045FB00210120FFF741FB7F1C3900C9B272
:103B50000120FFF73BFB2DE02A20FFF771FF00213A
:103B60000120FFF733FB761C3100C9B20120FFF7BB
:103B70002DFB00210120FFF729FB6D1C2900C9B294
:103B80000120FFF723FB2B20FFF75AFF0021012024
:103B9000FFF71CFBA41C2100C9B20120FFF716FB94
:103BA00000210120FFF712FBBF1C3900C9B2012020
:103BB000FFF70CFB2C20FFF743FFBDE8F08700B5B3
:103BC00085B06846FDF725FB0120ADF80000DFF861
:103BD000D4050088ADF80200DFF8D4050088ADF800
:103BE0000400DFF8D4050078002803D002280FD0A5
:103BF00007D30DE006208DF8060008208DF8070099
:103C000006E008208DF8060010208DF80700FFE779
:103C10000FF2C52003900FF2110004906846FDF7E3
:103C200008FB05B000BD000070B5D0B0002000203A
:103C30000820DFF888150860DFF86845DFF8705560
:103C40002888431E9BB22088421E92B20021002089
:103C5000FFF705FF002008E0DFF8641509886A46D1
:103C600003009BB222F81310401C0100228889B285
:103C70009142F1D3002605E0228869460120FFF732
:103C8000FAFA761C3000298880B28842F4D30820E2
:103C9000DFF83015086050B070BDDFF818150870F7
:103CA00008780028012803D9801E012809D910E0CE
:103CB0008020DFF8F0140880A020DFF8F4140880DA
:103CC00007E0A020DFF8DC1408808020DFF8E01493
:103CD00008807047DFF8F0241080DFF8E4040180EA
:103CE0007047F8B5D8B005000E0014002800DFF8C2
:103CF000B414098880B2884201D2012000E000207B
:103D0000DFF8A47440F2CB123900C0B2FDF753FAC9
:103D10003000DFF89C14098880B2884201D201206B
:103D200000E000204FF4E6723900C0B2FDF743FA1C
:103D3000002000200820DFF884140860DFF87804F1
:103D40000078002804D0022800F0BF8046D3BCE0F1
:103D5000F31D9BB26A1D92B2310089B2280080B275
:103D6000FFF77DFE002000E0401C0100C9B20629DB
:103D70002EDA0621DFF854242300DBB24B431A4429
:103D80000300DBB21A4412F8C02C00230BE040AD54
:103D90001E00F6B24E4356FA80F6DFF824743F88D0
:103DA00025F8167010E01D00EDB2082DDCDAD507FD
:103DB000EDD540AD1E00F6B24E4356FA80F6DFF860
:103DC00008743F8825F81670D2B252085B1CEAE7E7
:103DD000302240A90120FFF74EFA76E016F10F03DA
:103DE0009BB2EA1D92B2310089B2280080B2FFF77F
:103DF00036FE002000E0401C0100C9B208295EDA4E
:103E0000DFF8CC232100C9B2090111440300DBB261
:103E10001944B1F5007109782300DBB21B011A4483
:103E20000300DBB21A44B2F5FC72127800231BE0E7
:103E30006D461E00F6B2F60056FA80F6DFF8807383
:103E40003F8825F816700CE0CD07F1D56D461E00B1
:103E5000F6B2F60056FA80F6DFF86C733F8825F864
:103E60001670C9B249085B1C1D00EDB2082DEBDBD2
:103E700000210DE06B460D00EDB2ED0055FA80F526
:103E800003EB4503DFF838532D88A3F8805012E088
:103E90000B00DBB2082BAEDAD307EBD56B460D0077
:103EA000EDB2ED0055FA80F503EB4503DFF818534A
:103EB0002D88A3F88050D2B25208491CE8E780222E
:103EC00069460120FFF7D7F9FFE70820DFF8601601
:103ED000086059B0F0BD0000F8B504000E001500F0
:103EE0002000DFF8C012098880B2884201D2012088
:103EF00000E00020DFF8B07240F222223900C0B2A8
:103F0000FDF759F93000DFF8A812098880B288421D
:103F100001D2012000E0002040F223223900C0B28B
:103F2000FDF749F900270EE00CE0380080B22A5C6A
:103F3000310089B2380080B2C00010FA84F080B23B
:103F4000FFF7CFFE7F1C380080B2285C002817D016
:103F5000DFF880020078002803D00228E4D0E4D300
:103F6000F0E7380080B22A5C310089B23B009BB296
:103F70000620434313FA84F080B2FFF7B2FEE1E774
:103F8000F1BD2DE9FE43070016001D003800854AEB
:103F9000128880B2904201D2012000E000200C0083
:103FA000DFF804824FF410724146C0B2FDF703F906
:103FB0002000DFF88015098880B2884201D20120F4
:103FC00000E0002040F241224146C0B2FDF7F3F884
:103FD0002800C0B2002801D0012000E0002040F2FB
:103FE00042224146C0B2FDF7E6F82800C0B20B28D5
:103FF00001DA012000E0002040F243224146C0B235
:10400000FDF7D9F85FF001080C210022E946484687
:10401000FDF74CF92900C9B2491C2022E94648465F
:10402000FDF744F92800C0B20A280CDA03E00A20A0
:1040300000FB08F86D1E2800C0B20028F7D196FBDF
:10404000F8F008FB10663100684600F0AEFA6A46E8
:10405000210089B2380080B2FFF73EFFBDE8F78348
:104060002DE9F0412DED028B86B00500B0EE408BBE
:1040700016001F0028004B4A128880B2904201D2DD
:10408000012000E000200C00DFF81C8140F29122AA
:104090004146C0B2FDF78FF82000DFF89814098878
:1040A00080B2884201D2012000E0002040F292223A
:1040B0004146C0B2FDF77FF83000C0B2002801D001
:1040C000012000E0002040F293224146C0B2FDF7FB
:1040D00072F83000C0B2092801DA012000E00020A7
:1040E0004FF425724146C0B2FDF765F83800C0B202
:1040F000002801D0012000E0002040F29522414636
:10410000C0B2FDF758F83800C0B2072801DA012024
:1041100000E0002040F296224146C0B2FDF74BF885
:10412000B7EE000B11210022E8464046FDF7BEF82D
:104130003800C0B250FA86F1891C2022E846404679
:10414000FDF7B4F804E0B2EE042B20EE020B761E6D
:104150003000C0B20028F6D1BDEEC81B11EE100A27
:10416000BDEEC01B11EE101A90FBF1F001EE100A2B
:10417000B8EEC11B01EE408B3900C9B2B0EE480B5E
:10418000684600F0B1FA6A46210089B2280080B280
:10419000FFF7A2FE06B0BDEC028BBDE8F081000087
:1041A000040B31406C070228708D0810080B314059
:1041B0006E070228CE1702287B070228040631402A
:1041C0007207022808063140700702280C81081087
:1041D000446808107B0702281FB5062002900320C0
:1041E0000190012000900123D64A00210120FFF711
:1041F000F3F9032300220121B32000F0CFFB0323B6
:1042000000220121B42000F0C9FB03230122012177
:10421000632000F0C3FB032301220121582000F09A
:10422000BDFBC94C2078FFF738FDC4480188C4485D
:104230000088FFF74FFD1020C44908600A2000F0F5
:10424000A5FC1020C2490860782000F09FFC0820DF
:10425000B94908601120FFF7F3FB782000F096FCC5
:10426000B120FFF7EDFB01210120FEF7AFFF2C216C
:104270000120FEF7ABFF2D210120FEF7A7FFB220A2
:10428000FFF7DEFB01210120FEF7A0FF2C2101201A
:10429000FEF79CFF2D210120FEF798FFB320FFF7CA
:1042A000CFFB01210120FEF791FF2C210120FEF719
:1042B0008DFF2D210120FEF789FF01210120FEF74E
:1042C00085FF2C210120FEF781FF2D210120FEF723
:1042D0007DFFB420FFF7B4FB07210120FEF776FF36
:1042E000C020FFF7ADFBA2210120FEF76FFF0221E6
:1042F0000120FEF76BFF84210120FEF767FFC1203C
:10430000FFF79EFBC5210120FEF760FFC220FFF7EB
:1043100097FB0A210120FEF759FF00210120FEF73B
:1043200055FFC320FFF78CFB8A210120FEF74EFFCB
:104330002A210120FEF74AFFC420FFF781FB8A21D2
:104340000120FEF743FFEE210120FEF73FFFC520CD
:10435000FFF776FB0E210120FEF738FF3620FFF72E
:104360006FFB2078002805D002280DD007D3032842
:104370000FD012E0C0210120FEF728FF0DE0002140
:104380000120FEF723FF08E0A0210120FEF71EFF19
:1043900003E060210120FEF719FFE020FFF750FB4A
:1043A0000F210120FEF712FF1A210120FEF70EFF58
:1043B0000F210120FEF70AFF18210120FEF706FF5A
:1043C0002F210120FEF702FF28210120FEF7FEFE2B
:1043D00020210120FEF7FAFE22210120FEF7F6FE41
:1043E0001F210120FEF7F2FE1B210120FEF7EEFE49
:1043F00023210120FEF7EAFE37210120FEF7E6FE29
:1044000000210120FEF7E2FE07210120FEF7DEFE7B
:1044100002210120FEF7DAFE10210120FEF7D6FE70
:10442000E120FFF70DFB0F210120FEF7CFFE1B213E
:104430000120FEF7CBFE0F210120FEF7C7FE17215A
:104440000120FEF7C3FE33210120FEF7BFFE2C2121
:104450000120FEF7BBFE29210120FEF7B7FE2E2129
:104460000120FEF7B3FE30210120FEF7AFFE302120
:104470000120FEF7ABFE39210120FEF7A7FE3F2108
:104480000120FEF7A3FE00210120FEF79FFE072179
:104490000120FEF79BFE03210120FEF797FE10216D
:1044A0000120FEF793FE2A20FFF7CAFA002101201F
:1044B000FEF78CFE02210120FEF788FE002101207C
:1044C000FEF784FE82210120FEF780FE2B20FFF7FD
:1044D000B7FA00210120FEF779FE03210120FEF743
:1044E00075FE00210120FEF771FE83210120FEF7F9
:1044F0006DFEF020FFF7A4FA01210120FEF766FE11
:10450000F620FFF79DFA00210120FEF75FFE3A201A
:10451000FFF796FA05210120FEF758FE2920FFF744
:104520008FFA082002490860FFF749FB1FBD000011
:10453000080631406E07022804063140720702283F
:104540007007022880C3C901CE170228040B31402E
:10455000080B314010B50400002C01D0012000E010
:1045600000207322DFF8AC13C0B2FCF724FE002257
:104570000020002C18D021782D2902D10122641CA2
:104580000AE021782B2907D1641C05E00A23217851
:1045900003FB00103038641C217830390A29F5D328
:1045A000D2B2002A00D0404210BD38B584B0050018
:1045B0000C00002D01D0012000E000209F22DFF838
:1045C0005413C0B2FCF7F7FD00200021002D2DD0C0
:1045D000002C04D52D2129706D1C644206E0002CAE
:1045E00004D13020287021E049420AE0002C19D083
:1045F0000A2194FBF1F201FB12410200501C002938
:10460000F2D46B46D2B299540A2194FBF1F4EDE74F
:1046100069460200D2B2114411F8011C30312970F0
:104620006D1C401E0100C9B20029F1D105B030BD9A
:1046300010B50400002C01D0012000E000204FF450
:10464000D272DFF8D012C0B2FCF7B5FD00219FEDA9
:10465000AD0B9FEDAC1BB7EE002B002C43D02078A8
:104660002D2802D10121641C11E020782B280ED1C5
:10467000641C0CE0B2EE044BB0EE403B20783038C6
:1046800000EE100AB8EEC00B03EE040B641C207899
:1046900030380A28EED320782E281DD1601C0EE079
:1046A000B2EE043BB0EE414B0278303A01EE102AF4
:1046B000B8EEC11B04EE031B22EE032B401C027854
:1046C000303A0A2A06D29FED914BB4EE442BF1EE1C
:1046D00010FAE5D481EE021B30EE010BC9B20029BD
:1046E00001D0B1EE400B10BDF8B52DED028B96B0A8
:1046F0000400B0EE408B0D00002C01D0012000E042
:1047000000204FF4F172DFF80C12C0B2FCF753FD39
:10471000002000202900002C71D0BDEEC80B10EE47
:10472000100A9FED781BB4EE418BF1EE10FA09D51B
:104730002D222270641C00EE100AB8EEC00B38EE79
:10474000400B13E09FED6F1BB4EE418BF1EE10FABE
:10475000F1D130202070601C2E210170401C3021CE
:1047600001704CE0B2EE042B20EE020B0A00511E49
:10477000D2B2002AF6D1BDEEC00B10EE101A002204
:104780000A2390FBF3F603FB160309AE1700FFB2F2
:1047900046F82730521C0A2390FBF3F00028EFD193
:1047A0001000C0B200281ED02000441C09AB160027
:1047B000F6B203EB860353F8043C002B07D409AB95
:1047C0001600F6B203EB860353F8043C07E009AB8E
:1047D0001600F6B203EB860353F8043C5B42303319
:1047E0000370521EDCE72800C0B2002807D000206A
:1047F0002E222270621C002914D13020107016B0B5
:10480000BDEC028BF1BD0A2391FBF3F403FB1413FF
:104810006C460600F6B244F82630401C0A2391FB91
:10482000F3F16D1E2B00DBB2002BECD10100C9B2FD
:104830000029E4D011004A1C6B460400E4B203EBEB
:10484000840353F8043C002B07D46B460400E4B205
:1048500003EB840353F8043C07E06B460400E4B226
:1048600003EB840353F8043C5B4230330B70401E6F
:10487000DCE738B50400002C01D0012000E0002066
:1048800040F23722DFF88C10C0B2FCF794FC200015
:10489000FDF76CFB0200002100200023002C0AD051
:1048A0001800C0B200281DD020786138062803D235
:1048B000207857380DE022E020784138062802D2CF
:1048C0002078373805E0207830380A2809D2207857
:1048D00030380D000100C9B211F00F0151EA051185
:1048E00008E00CE02078302804D16078782801D1E5
:1048F000641C0123641C1000421E0028CED1080055
:1049000032BD0000000000000000000000000000B8
:1049100065CDCD41B08C08100069C84010F0010091
:104920007047012212FA01F181607047012212FAE8
:1049300001F14160704780B5C9B200290ED0010075
:10494000C9B2082291FBF2F302FB1311354AC0B23F
:10495000C010C0011044FFF7E4FF0DE00100C9B230
:10496000082291FBF2F302FB13112E4AC0B2C010D1
:10497000C0011044FFF7DAFF01BD80B50100C9B2E4
:10498000082291FBF2F302FB1311264AC0B2C010B9
:10499000C0011044FFF7C0FFC0B202BD2DE9F841CD
:1049A0008DB004000E0015001F0034210022E846DF
:1049B0004046FCF77BFCF6B2002E0ED1FFB2002F72
:1049C00002D0022F03D005E00F2001900DE0082057
:1049D00001900AE00820019007E0FFB2042F02D105
:1049E0000F20019001E00E2001902000C0B2C028ED
:1049F0000FD02100C9B208206A4691FBF0F300FBFA
:104A0000131108482300DBB2DB10DB011844FCF76C
:104A10004AFD2900C9B22000C0B2FFF78CFF0EB0DA
:104A2000BDE8F08100003140022801D301200FE0F1
:104A30000B00DBB2042B01DB012009E0954B03EBFB
:104A40008000C9B2405C824201D3012000E0002016
:104A50007047F8B506000F0015001C00022E01D3A8
:104A600001201CE02A003900C9B23000FFF7DCFF4A
:104A7000012801D1012012E03800C0B2002811D174
:104A8000B4F5807F0CD284487603304400EB850077
:104A900010F58050016864F30F2101600020F2BD21
:104AA0000120FCE7FFB2012F10D1B4F5803F0BD2FB
:104AB00079487603304400EB850010F5A05001687A
:104AC00064F317210160E9E70120E8E70120E6E748
:104AD00000B20012C0B27047F8B505000E00170012
:104AE000280000B2FFF7F4FF04002000C0B2022843
:104AF00001D3012023E03A003100C9B22000C0B246
:104B0000FFF792FF012801D1012018E0624920003F
:104B1000C0B2400308442A00D2B200EB8200D0F8B1
:104B2000000CF6B266F3092067F30700E4B26403F1
:104B30002144EDB201EB8501C1F8000C0020F2BD6B
:104B400070B504000D001600022C01D301201CE0FA
:104B500032002900C9B22000FFF766FF012801D109
:104B6000012012E04C496003085850F0004050F01A
:104B7000407050F47F00EDB265F3092066F3070042
:104B80006203885064030859002070BDF8B5040022
:104B90004FF4FA504443414D414E00212878C00162
:104BA000304400F048F914E02878C001304400F0A7
:104BB00044F9B842F8D33B4F3C192878C00130443F
:104BC00000F03BF93F1839002878C001304400F06C
:104BD00032F94CF25137BC42E6D22878C001304459
:104BE00000F02BF98442F8D2F1BD38B594B05021D1
:104BF00000226C462000FCF759FB2B4C00220121BF
:104C0000B4F90000FFF768FFB4F90000FFF760FF98
:104C1000092300220121C0B2FFF71BFFB4F90000F5
:104C2000FFF756FF00220121C0B2FFF789FF5FF0B6
:104C3000FF30009000208DF8040000208DF8050062
:104C400000208DF8060000208DF8080003208DF864
:104C500044000120129001208DF807000F4C104DE8
:104C600069462078C001284400F020F82078C0016F
:104C7000284400F0DBF800212078C001284400F02F
:104C8000DAF82078C0012844FCF751FD15B030BD9A
:104C90000000000050920810000004407C07022829
:104CA00000005940B03CFFFF7407022810B40122F5
:104CB00091F84C30052B03D291F84D30052B01D3E0
:104CC0001000A7E0002800F0A480002900F0A180D7
:104CD000514A12684B7963F392428B7913F00303C4
:104CE00063F311420B7A13F0070363F31A62CB7973
:104CF00063F39E720B7D63F3000291F8243063F33B
:104D0000410202600A7910F130031C6862F3070463
:104D10001C604A79012A0BD18A79002A02D100222B
:104D2000826007E08A79012A04D10A68826001E082
:104D300001228260CA6802610A694261CA698261AD
:104D40000A6AC2610A680262344A12680B7E03F082
:104D5000FF03120A12021A4391F8303003F0FF03E6
:104D600063F3174291F8403003F0FF0363F31F62CF
:104D700091F8483003F0FF0363F30F224264284A9E
:104D8000126891F8383003F0FF03120A12021A4336
:104D900091F8283003F0FF0363F30F228264214A65
:104DA00012688B7D13F00303920892001A4391F866
:104DB000253013F0030363F38B2291F82C3013F0AA
:104DC000030363F3051291F8343013F0030363F324
:104DD000092291F83C3013F0030363F3871291F832
:104DE000443013F0030363F38302C2640E4A126873
:104DF00091F84C3013F00703D208D2001A4391F80F
:104E00004D3013F0070363F306124265497D816755
:104E10000022100010BC7047C8920810CC920810F5
:104E2000D0920810D4920810D8920810016851F05E
:104E3000004101607047816070478068704778303A
:104E4000016851F001010160704710F170010A68BA
:104E500052F001020A60006F70470000F8B50500CB
:104E60000C00002000260A21200000F02DFD002269
:104E70000021002802D0001B401C0200002000E09E
:104E8000401C03001700DBB2FFB2BB420DD203008F
:104E9000DBB2E35C2C2B00D1761C33002F00DBB29D
:104EA000FFB2BB42ECD1401C01000800C0B2F2BD11
:104EB0003EB504000020002021000120FFF7CEFFB6
:104EC000451E2A00D2B22100684600F009FD0020EC
:104ED0006946EDB248556846FFF73CFB3EBD000011
:104EE00038B584B0040000209FEDC90A21000120DC
:104EF000FFF7B4FF451E2A00D2B22100684600F039
:104F0000EFFC00206946EDB248556846FFF790FB7C
:104F1000B7EEC00B05B030BD38B584B0040000203A
:104F20009FEDB90B21000120FFF798FF451E2A00D5
:104F3000D2B22100684600F0D3FC00206946EDB2F1
:104F400048556846FFF774FB05B030BD10B400212A
:104F50000179083101710179182940DB017918398B
:104F60000171C178491CC1708178022917D11C22B6
:104F7000017811F0030F07D10188642391FBF3F44A
:104F800003FB1411002908D101884FF4C87391FB69
:104F9000F3F403FB141100290FD1521C0DE01F2262
:104FA0008178042908D08178062905D081780929DB
:104FB00002D081780B2900D11E22C178D2B28A4258
:104FC0000DD20121C1708178491C817081780D2931
:104FD00005DB81780C3981700188491C018010BC87
:104FE00070470000F8B52DED028B06000C00002084
:104FF00000209FED850B9FED840B9FED830B9FEDB4
:10500000820B9FED810B9FED800B9FED810A0025A8
:1050100031000220FFF722FFC0B2305C0100C9B2AC
:10502000412903D0C0B2442840F0A28001250120CC
:10503000207231000420FFF711FFC0B2305684F80F
:10504000280031000620FFF709FFC0B2305684F86F
:10505000290031000320FFF701FFC0B23044FFF701
:105060005BFFB0EE408B31000520FFF7F7FEC0B2CA
:105070003044FFF751FFBDEEC81B11EE100A64214A
:1050800090FBF1F0608164206189414301EE101AC8
:10509000B8EEC11B38EE411BBDEEC12B12EE101A4B
:1050A000A1819FEDBA2BA18903EE101AB8EE433B04
:1050B00031EE433B23EE023BBDEEC33B13EE101A31
:1050C000E181BDEEC03B13EE101A642291FBF2F1B8
:1050D0002182218A00FB01F003EE100AB8EEC33BE7
:1050E00030EE430BBDEEC03B13EE100A6082608AC7
:1050F00003EE100AB8EE433B30EE433B23EE022BA7
:10510000BDEEC22B12EE100AA082608902EE100AD8
:10511000B8EE422B9FEDD14B81EE041B32EE011B0A
:1051200084ED061B208A01EE100AB8EE411B9FEDAC
:10513000CB3B80EE030B31EE000B84ED080B31000E
:105140000720FFF78BFEC0B23044FFF7C9FEDFED4A
:10515000C50A20EE200A84ED0B0A31000820FFF773
:105160007DFEC0B23044FFF7BBFE84ED0C0A01E0C7
:10517000002020720A27F179307A07FB0101B1F192
:1051800010002071717AB07A07FB0101B1F11000B3
:105190006071F17A307B07FB0101B1F11000A07161
:1051A00031000920FFF75AFE0100C9B2725C01000C
:1051B000C9B23144497807FB0212B2F11001E17023
:1051C0000100C9B231448A780100C9B23144C978BA
:1051D00007FB0212B2F11001A1700100C9B2314403
:1051E000097911FB07F1C0B23044407951FA80F0DF
:1051F00010F5B86020802000FFF7A8FE2800C0B29C
:10520000BDEC028BF2BD00000000000000000000B9
:105210000000000070B52DED028B05000C00002091
:10522000002629000220FFF719FEC0B2285CC0B298
:105230002C2820D029000720FFF710FEC0B22844F8
:10524000FFF736FE84F83C0029000920FFF706FE30
:10525000C0B22844FFF744FEB0EE408A29000B207C
:10526000FFF7FCFDC0B22844FFF73AFE30EE080A13
:1052700084ED100A01263000C0B2BDEC028B70BD77
:1052800070B505000C000020002629000220FFF761
:10529000E5FDC0B2285CC0B241280ED1012084F8DF
:1052A000340029000120FFF7D9FDC0B22844FFF7E0
:1052B00017FE84ED0E0A012602E0002084F8340077
:1052C0003000C0B270BD000080B52DED0A8B9FED9F
:1052D000AE8B9FEDAF4B9FEDAE4B9FEDAD4B9FED7A
:1052E000AC4B9FEDAB4B9FEDAA4B9FEDA94B9FEDB8
:1052F000AA4B20EE040B9FEDAA6B80EE069B22EEDC
:10530000040B9FEDA75B80EE05AB21EE040B9FED38
:10531000A42B80EE020B23EE041B9FEDA13B81EE3C
:10532000031B39EE4A2B30EE41BBB0EE001B82EE80
:10533000010B00F087FCB0EE40CBB0EE490B00F063
:105340007FFCB0EE409BB0EE4A0B00F079FCB0EE73
:1053500040ABB0EE001B8BEE010B00F073FCB0EE27
:10536000401B2CEE0C0B29EE0A2B21EE011B02EE4A
:10537000010B00F069FC00F077FCB0EE002B20EE92
:10538000020B20EE080BBDEC0A8B01BD00000000F3
:105390000070B74080B52DED0E8B9FED7F4B20EE5A
:1053A000040B9FED7F6B80EE06CB22EE040B9FED8E
:1053B0007C5B80EE058B21EE040B9FED792B80EE5C
:1053C00002AB23EE040B9FED762B80EE02BB3BEE8F
:1053D0004A0B00F037FCB0EE409BB0EE480B00F0FB
:1053E0002FFC20EE099BB0EE4C0B00F029FCB0EE38
:1053F00040DBB0EE480B00F025FCB0EE40EBB0EE29
:105400004C0B00F01FFCB0EE40CBB0EE480B00F0B0
:1054100017FC2DEE0E8B2CEE00CB3BEE4A0B00F072
:105420000FFC0CEE408BB0EE481BB0EE490B00F0C9
:105430005FFC9FED5B2B20EE020B9FED572B80EE68
:10544000020BB5EE400BF1EE10FA03DC9FED8F2B53
:1054500030EE020BBDEC0E8B01BD00000000000021
:1054600000004E40CDCCEC3F7CB500246846DFF810
:10547000F813D1E90023C0E9002300200020002018
:10548000DFF8E8532878012824D102202870DFF8BB
:10549000E0632A21300000F017FA0222411C0DF1CE
:1054A000020000F01DFA6846FFF7E3F97278022364
:1054B00002E0F15C4A405B1CF15C2A29F9D1D2B2CE
:1054C000C0B2824201D001245AE0DFF8A8133000B4
:1054D000FFF788FD00202870DFF89C53287801280A
:1054E00023D102202870DFF894632A21300000F0D5
:1054F000EBF90222411C0DF1020000F0F1F96846BF
:10550000FFF7B7F97278022302E0F15C4A405B1CB6
:10551000F15C2A29F9D1D2B2C0B2824201D0012471
:105520002EE0D4493000FFF775FE00202870D44DDE
:105530002878012822D102202870D24E2A2130005A
:1055400000F0C2F90222411C0DF1020000F0C8F97E
:105550006846FFF78EF97278022302E0F15C4A4058
:105560005B1CF15C2A29F9D1D2B2C0B2824201D0CF
:10557000012405E0BF493000FFF782FE00202870BB
:105580002000C0B276BD000000000040A654584183
:105590000000000000000000282D4454FB210940B9
:1055A00000000000008066401FB500200190B64852
:1055B0000078002868D004E001226946B348FCF76F
:1055C00076FD69460220FCF7BFFA0028F4D19DF869
:1055D00000000A2858D106200190AC4C012301AAF2
:1055E00002A92000FCF733FE03229CA10DF10B0061
:1055F00000F0BDFB002810D19C48017802293DD065
:10560000012101702000FCF741FD0190002301AA57
:1056100097492000FCF71BFE30E0032290A10DF11A
:105620000B0000F0A4FB002810D193480178022958
:1056300024D0012101702000FCF728FD01900023F7
:1056400001AA8E492000FCF702FE17E0032285A183
:105650000DF10B0000F08BFB00280FD1884801787A
:1056600002290BD0012101702000FCF70FFD0190F1
:10567000002301AA83492000FCF7E9FD2000FCF784
:10568000CBFC0120824908701FBD00000000000013
:105690000080764038B5A8B0040021A87D491C22BE
:1056A000FDF78AFA1EA87C4991E82C0080E82C00BE
:1056B0001BA87A4991E82C0080E82C0018A87849AA
:1056C00091E82C0080E82C0015A8764991E82C0080
:1056D00080E82C0012A8744991E82C0080E82C0086
:1056E0000FA8724991E82C0080E82C000CA87049A2
:1056F00091E82C0080E82C0009A86E4991E82C0064
:1057000080E82C0006A86C4991E82C0080E82C0069
:1057100003A86A4991E82C0080E82C006846684993
:1057200091E82C0080E82C002000C0B2012803D0B2
:105730002000C0B2012878D18023624A002153485A
:10574000FCF755FE4FF4FA70FFF720FA022302220D
:105750005FF4E1310220FCF71DFB1C2221A902208D
:10576000FCF7D5F9C820FFF711FA0B221BA902207C
:10577000FCF7CDF93220FFF709FA0B221EA902200F
:10578000FCF7C5F93220FFF701FA0B2218A9022015
:10579000FCF7BDF93220FFF7F9F90B2215A9022019
:1057A000FCF7B5F93220FFF7F1F90B2212A902201C
:1057B000FCF7ADF93220FFF7E9F90B220FA902201F
:1057C000FCF7A5F93220FFF7E1F90B220CA9022022
:1057D000FCF79DF93220FFF7D9F90B2209A9022025
:1057E000FCF795F93220FFF7D1F90B2206A9022028
:1057F000FCF78DF93220FFF7C9F90B2203A902202B
:10580000FCF785F93220FFF7C1F90B226946022027
:10581000FCF77DF93220FFF7B9F901201A49087029
:1058200001210220FCF737FA16E0E4B2022C13D172
:105830008023244A00211548FCF7D9FD02230222C7
:105840005FF4E1310220FCF7A5FA01200E4908704F
:1058500001210220FCF71FFA29B030BD524D430050
:10586000474741005448530060920810CC17022863
:10587000B814022828160228CB1702283814022848
:10588000CD17022838150228CA170228B816022890
:10589000C9170228D4900810C0910810CC910810A4
:1058A000D8910810E4910810F0910810FC910810AC
:1058B0000892081014920810209208102C920810D8
:1058C00038920810B8130228C9B202788A421AB175
:1058D0001CBF10F8012FF9E718BF00207047000027
:1058E00001B58B071AD1830724D1121F21D351F898
:1058F000043BA3F1013C2CEA030C1CF0803C04BFE8
:1059000040F8043BF1E79CFA8CFCBCFA8CF1C1F145
:1059100018018B40CB4040F8043B13E0042A09D324
:1059200011F8013B521E00F8013B5BB18B07F7D128
:10593000D9E7121D5AB111F8013B521E00F8013B84
:1059400003B1F8D111001CBF0022FBF7B3FC01BD6D
:105950009FED8F2B20EE021B53EC112B1946F0B458
:1059600021F0004457EC116B274647EC126B9FED7A
:105970008A4BB4EE442BF1EE10FA2DED068B2BD5AD
:10598000B6EE002B53EC122B01F00041194355ECFD
:10599000124B0D4645EC124B32EE011BBDEEC11B06
:1059A00011EE101A002900F09D80BAEEC21B9FED87
:1059B0007C3B01EE030B9FED7C5B01EE050B9FED45
:1059C0007C7B01EE070B9FED7C9B01EE090B9FEDAD
:1059D0007C3B01EE030B85E055EC104B6B0043EA7A
:1059E000D4735A15DB1712F1010F14D14FF0FF30A9
:1059F000834208BF824208D12D0345EA145524038F
:105A0000002D08BF002C40F0BF80BDEC068B9FED41
:105A10006E0BF0BC704724F0000235F0004308BF65
:105A2000002A08D1002800F0AF80BDEC068BB7EE4D
:105A3000000BF0BC7047B6EE002B53EC122B01F0BC
:105A40000041194355EC124B0D4645EC124B32EE1A
:105A5000011B53EC112B5D0045EAD2755400002D5B
:105A600008BF002C19D040F23341A1EB5551352924
:105A700004DB02F0000203F000430CE0202903DD08
:105A80002039CB408B4000E001D1002203E0002907
:105A9000C4BFCA408A4043EC112B53EC112B22F0B7
:105AA000000433F0004508BF002C17D09FED483BA1
:105AB00021EE032B9FED3A5B02EE050B9FED3A7B47
:105AC00002EE070B9FED3A9B02EE090B9FED3AABFE
:105AD00002EE0A0B9FED3A5B02EE050BBDEEC11B19
